{
  "_format": "hh-sol-artifact-1",
  "contractName": "TodoList",
  "sourceName": "contracts/TodoList.sol",
  "abi": [
    {
      "inputs": [
        {
          "internalType": "string",
          "name": "item",
          "type": "string"
        }
      ],
      "name": "addItem",
      "outputs": [],
      "stateMutability": "nonpayable",
      "type": "function"
    },
    {
      "inputs": [],
      "name": "getItems",
      "outputs": [
        {
          "internalType": "string[]",
          "name": "items",
          "type": "string[]"
        }
      ],
      "stateMutability": "view",
      "type": "function"
    },
    {
      "inputs": [
        {
          "internalType": "uint256",
          "name": "itemIndex",
          "type": "uint256"
        }
      ],
      "name": "removeItem",
      "outputs": [],
      "stateMutability": "nonpayable",
      "type": "function"
    },
    {
      "inputs": [
        {
          "internalType": "address",
          "name": "",
          "type": "address"
        },
        {
          "internalType": "uint256",
          "name": "",
          "type": "uint256"
        }
      ],
      "name": "userItems",
      "outputs": [
        {
          "internalType": "string",
          "name": "",
          "type": "string"
        }
      ],
      "stateMutability": "view",
      "type": "function"
    }
  ],
  "bytecode": "0x608060405234801561001057600080fd5b50610dc3806100206000396000f3fe608060405234801561001057600080fd5b506004361061004c5760003560e01c806327e9f29414610051578063410d59cc1461006d5780635c3bd1411461008b57806371329171146100bb575b600080fd5b61006b600480360381019061006691906108aa565b6100d7565b005b6100756101a6565b6040516100829190610a3d565b60405180910390f35b6100a560048036038101906100a09190610af3565b6102bb565b6040516100b29190610b7d565b60405180910390f35b6100d560048036038101906100d09190610b9f565b610374565b005b60008060003373ffffffffffffffffffffffffffffffffffffffff1673ffffffffffffffffffffffffffffffffffffffff168152602001908152602001600020905080829080600181540180825580915050600190039060005260206000200160009091909190915090805190602001906101539291906104c7565b50806000803373ffffffffffffffffffffffffffffffffffffffff1673ffffffffffffffffffffffffffffffffffffffff1681526020019081526020016000209080546101a192919061054d565b505050565b60606000803373ffffffffffffffffffffffffffffffffffffffff1673ffffffffffffffffffffffffffffffffffffffff168152602001908152602001600020805480602002602001604051908101604052809291908181526020016000905b828210156102b257838290600052602060002001805461022590610bfb565b80601f016020809104026020016040519081016040528092919081815260200182805461025190610bfb565b801561029e5780601f106102735761010080835404028352916020019161029e565b820191906000526020600020905b81548152906001019060200180831161028157829003601f168201915b505050505081526020019060010190610206565b50505050905090565b600060205281600052604060002081815481106102d757600080fd5b906000526020600020016000915091505080546102f390610bfb565b80601f016020809104026020016040519081016040528092919081815260200182805461031f90610bfb565b801561036c5780601f106103415761010080835404028352916020019161036c565b820191906000526020600020905b81548152906001019060200180831161034f57829003601f168201915b505050505081565b60008060003373ffffffffffffffffffffffffffffffffffffffff1673ffffffffffffffffffffffffffffffffffffffff168152602001908152602001600020905060008290505b600182805490506103cd9190610c5c565b81101561044557816001826103e29190610c90565b815481106103f3576103f2610ce6565b5b906000526020600020018282815481106104105761040f610ce6565b5b9060005260206000200190805461042690610bfb565b6104319291906105b5565b50808061043d90610d15565b9150506103bc565b508080548061045757610456610d5e565b5b6001900381819060005260206000200160006104739190610642565b9055806000803373ffffffffffffffffffffffffffffffffffffffff1673ffffffffffffffffffffffffffffffffffffffff1681526020019081526020016000209080546104c292919061054d565b505050565b8280546104d390610bfb565b90600052602060002090601f0160209004810192826104f5576000855561053c565b82601f1061050e57805160ff191683800117855561053c565b8280016001018555821561053c579182015b8281111561053b578251825591602001919060010190610520565b5b5090506105499190610682565b5090565b8280548282559060005260206000209081019282156105a45760005260206000209182015b828111156105a357828290805461058890610bfb565b61059392919061069f565b5091600101919060010190610572565b5b5090506105b1919061072c565b5090565b8280546105c190610bfb565b90600052602060002090601f0160209004810192826105e35760008555610631565b82601f106105f45780548555610631565b8280016001018555821561063157600052602060002091601f016020900482015b82811115610630578254825591600101919060010190610615565b5b50905061063e9190610682565b5090565b50805461064e90610bfb565b6000825580601f10610660575061067f565b601f01602090049060005260206000209081019061067e9190610682565b5b50565b5b8082111561069b576000816000905550600101610683565b5090565b8280546106ab90610bfb565b90600052602060002090601f0160209004810192826106cd576000855561071b565b82601f106106de578054855561071b565b8280016001018555821561071b57600052602060002091601f016020900482015b8281111561071a5782548255916001019190600101906106ff565b5b5090506107289190610682565b5090565b5b8082111561074c57600081816107439190610642565b5060010161072d565b5090565b6000604051905090565b600080fd5b600080fd5b600080fd5b600080fd5b6000601f19601f8301169050919050565b7f4e487b7100000000000000000000000000000000000000000000000000000000600052604160045260246000fd5b6107b78261076e565b810181811067ffffffffffffffff821117156107d6576107d561077f565b5b80604052505050565b60006107e9610750565b90506107f582826107ae565b919050565b600067ffffffffffffffff8211156108155761081461077f565b5b61081e8261076e565b9050602081019050919050565b82818337600083830152505050565b600061084d610848846107fa565b6107df565b90508281526020810184848401111561086957610868610769565b5b61087484828561082b565b509392505050565b600082601f83011261089157610890610764565b5b81356108a184826020860161083a565b91505092915050565b6000602082840312156108c0576108bf61075a565b5b600082013567ffffffffffffffff8111156108de576108dd61075f565b5b6108ea8482850161087c565b91505092915050565b600081519050919050565b600082825260208201905092915050565b6000819050602082019050919050565b600081519050919050565b600082825260208201905092915050565b60005b8381101561095957808201518184015260208101905061093e565b83811115610968576000848401525b50505050565b60006109798261091f565b610983818561092a565b935061099381856020860161093b565b61099c8161076e565b840191505092915050565b60006109b3838361096e565b905092915050565b6000602082019050919050565b60006109d3826108f3565b6109dd81856108fe565b9350836020820285016109ef8561090f565b8060005b85811015610a2b5784840389528151610a0c85826109a7565b9450610a17836109bb565b925060208a019950506001810190506109f3565b50829750879550505050505092915050565b60006020820190508181036000830152610a5781846109c8565b905092915050565b600073ffffffffffffffffffffffffffffffffffffffff82169050919050565b6000610a8a82610a5f565b9050919050565b610a9a81610a7f565b8114610aa557600080fd5b50565b600081359050610ab781610a91565b92915050565b6000819050919050565b610ad081610abd565b8114610adb57600080fd5b50565b600081359050610aed81610ac7565b92915050565b60008060408385031215610b0a57610b0961075a565b5b6000610b1885828601610aa8565b9250506020610b2985828601610ade565b9150509250929050565b600082825260208201905092915050565b6000610b4f8261091f565b610b598185610b33565b9350610b6981856020860161093b565b610b728161076e565b840191505092915050565b60006020820190508181036000830152610b978184610b44565b905092915050565b600060208284031215610bb557610bb461075a565b5b6000610bc384828501610ade565b91505092915050565b7f4e487b7100000000000000000000000000000000000000000000000000000000600052602260045260246000fd5b60006002820490506001821680610c1357607f821691505b60208210811415610c2757610c26610bcc565b5b50919050565b7f4e487b7100000000000000000000000000000000000000000000000000000000600052601160045260246000fd5b6000610c6782610abd565b9150610c7283610abd565b925082821015610c8557610c84610c2d565b5b828203905092915050565b6000610c9b82610abd565b9150610ca683610abd565b9250827fffffffffffffffffffffffffffffffffffffffffffffffffffffffffffffffff03821115610cdb57610cda610c2d565b5b828201905092915050565b7f4e487b7100000000000000000000000000000000000000000000000000000000600052603260045260246000fd5b6000610d2082610abd565b91507fffffffffffffffffffffffffffffffffffffffffffffffffffffffffffffffff821415610d5357610d52610c2d565b5b600182019050919050565b7f4e487b7100000000000000000000000000000000000000000000000000000000600052603160045260246000fdfea2646970667358221220808fc6e0972e2f807b8a9c1350937ef4d3e5f3b358ab85cbf42cdb59da1fe77564736f6c63430008090033",
  "linkReferences": {},
  "deployedLinkReferences": {}
}